:020000040800F2
:10000000B829002001010008172E00080D2B000858
:10001000152E0008B9090008093C0008000000007E
:10002000000000000000000000000000DF340008B5
:10003000030A000800000000392E0008E13400081F
:100040001B0100081B0100081B0100081B01000820
:100050001B0100081B0100081B0100081B01000810
:100060001B0100081B0100081B010008CD09000846
:100070001B0100081B0100081B0100081B010008F0
:100080001B0100081B010008810800081B01000873
:100090001B0100081B0100081B0100081B010008D0
:1000A0001B0100081B0100081B0100081B010008C0
:1000B000BD350008553600081B0100081B0100086B
:1000C0001B0100081B0100081B0100081B010008A0
:1000D0001B010008A93B00081B010008E93B0008C0
:1000E0001B0100081B0100081B010008DFF80CD0F1
:1000F00000F0B4FB00480047915D0008B8290020DB
:100100000648804706480047FEE7FEE7FEE7FEE7B1
:10011000FEE7FEE7FEE7FEE7FEE7FEE775350008CF
:10012000ED000008202A04DB203A21FA02F0002129
:10013000704721FA02F3D040C2F1200291400843F7
:1001400019467047D2B201E000F8012B491EFBD2DC
:1001500070470022F6E710B513460A4604461946D2
:10016000FFF7F0FF204610BD420005D0C0F3C75294
:100170005242914201DC0020704700EBC1507047B1
:100180002DE9FE4F804681EA0300C00F0C46009027
:1001900021F0004123F00045B8EB0200A94105D24F
:1001A0004046214690461C460B46024623F000403E
:1001B000104347D0270DC7F30A00C3F30A5102903A
:1001C000401A019040286BDAC3F3130040F4801BFF
:1001D0000098924620B10023D2EB030A63EB0B0B8D
:1001E00001985946C0F14002504600F06AFA0646AE
:1001F0000D4650465946019A00F072FA10EB08007D
:100200006141002487EA115284EAE7731A4340D01F
:10021000009A62B3019A012A4FEA075215DC001BCB
:1002200061EB02014FF0004202EA0752CDE90042C1
:10023000001C41F5801132462B4600F0A9FA03B0AC
:10024000BDE8F08F40462146F9E7001B61EB020153
:10025000001C41F5801300185B412018A2F500171F
:1002600047EB030140EAD570B6196D4111E06D0806
:100270004FEA360645EAC0754FEA0752001B61EBAC
:100280000201001C41F5801149084FEA30000019B5
:10029000514132462B4603B0BDE8F04F00F069BA39
:1002A0000098012240000023D0EB020263EBE073D0
:1002B000009821464FEAE074B8EB000061EB0401BE
:1002C000E9E783F000435BE781F0004158E72DE95F
:1002D000FE4F81EA030404F0004421F00041009441
:1002E0004FF0000B23F0004350EA01045ED052EAC5
:1002F00003045BD0C3F30A54C1F30A552C44A4F29F
:10030000F3340194A0FB0254C1F3130141F48011B2
:10031000C3F3130343F4801301FB024400FB034EB9
:10032000840A970A44EA815447EA8357A4FB076882
:1003300002958D0A05FB07854FEA932C04FB0C54AC
:100340002705029D4FEA065847EA1637B5EB080520
:100350006EEB070C870E920E47EA811742EA831272
:10036000A7FB0201B6EB0B0164EB00042B0D43EA83
:100370000C335E1844EB1C50DA465146E7FB020191
:10038000C5F313044FEA0B3343EA14534FEA043224
:10039000019C43EA0603A4F10C040294009CCDE9FD
:1003A00000B400F0F5F903B0BDE8F08F002001467D
:1003B000F9E72DE9F04D81EA030404F0004B21F048
:1003C000004514464FF0000A23F0004150EA0502B0
:1003D00020D054EA01021DD0C5F30A570246C5F3E6
:1003E0001303C1F31300C1F30A5640F4801543F41C
:1003F0008013A7EB0608101BD64608F2FD3873EBF6
:10040000050002D308F1010801E092185B41B8F140
:10041000000F03DA00200146BDE8F08D00204FF404
:100420008011064684460EE0171B73EB050705D3C3
:10043000121B63EB050306434CEA010C49084FEA23
:10044000300092185B4150EA0107EDD152EA0300F7
:1004500012D082EA040083EA0501084305D0101B8C
:10046000AB4106D20122002306E000224FF00043F8
:1004700002E06FF0010253101AEB06004CEB08513A
:1004800010EB0A0041EB0B01BDE8F04D00F071B933
:1004900070B521F0004303430CD0C1F30A5500248A
:1004A000D5EB040564EB0403D617AD1AB34102DBA8
:1004B0000020014670BD201841EB025170BD96230B
:1004C0000022114600F027B90EB5C10F80EAE07096
:1004D0000844CA07002140F233438DE80E000A4663
:1004E0000B4600F055F903B000BD0EB540F23341A4
:1004F00002910021CDE900110A460B4600F048F9AF
:1005000003B000BD70B5C1F30A5201F000450024EC
:10051000C1F3130140F2FF3341F480119A4201DA32
:10052000002070BD40F233439A42A2F2334203DC12
:100530005242FFF7F7FD00E090402C43F1D04042DB
:1005400070BDC1F30A5210B5C1F3130140F2FF337D
:1005500041F480119A4201DA002010BD40F2334389
:100560009A42A2F2334203DC5242FFF7DBFD10BD98
:10057000904010BD00F0004230F000400AD0C10DA4
:1005800001F56071C0F3160042EA0151C20840074C
:1005900011437047002001467047000030B5041E2B
:1005A00071F1000404DB4FF00044404264EB0101B0
:1005B000141E73F1000405DB1C464FF00043524249
:1005C00063EB04038B4208BF824230BD30B5041E8A
:1005D00071F1000404DB4FF00044404264EB010180
:1005E000141E73F1000405DB1C464FF00043524219
:1005F00063EB0403994208BF904230BD01F0004311
:1006000030B421F0004150EA010206D00A0DA2F5F3
:100610006072C1F31301002A02DC30BC0020704775
:10062000440F44EAC104C100E01830BC00EBC250E2
:1006300000F068B830B50B460146002020220124A6
:1006400009E021FA02F59D4205D303FA02F5491BA0
:1006500004FA02F52844151EA2F10102F1DC30BDB6
:100660002DE9F05F0546002092469B4688460646E7
:10067000814640241BE02846414647462246FFF774
:1006800051FD53465A46C01A914110D3114618469F
:10069000224600F016F82D1A67EB01084F46224655
:1006A0000120002100F00DF817EB00094E41201E3B
:1006B000A4F10104DFDC484631462A464346BDE842
:1006C000F09F202A04DB203A00FA02F10020704754
:1006D0009140C2F1200320FA03F319439040704780
:1006E000202A06DBCB17203A41FA02F043EAE073F6
:1006F00006E041FA02F3D040C2F1200291400843E3
:10070000194670470029A8BF7047401C490008BF20
:1007100020F00100704710B4B0FA80FC00FA0CF031
:1007200050EA010404BF10BC704749B1CCF1200469
:1007300021FA04F411FA0CF118BF012121430843F6
:10074000A3EB0C01CB1D4FEA00614FEA102042BF22
:10075000002010BC704700EBC35010440029A4BF18
:1007600010BC7047401C490008BF20F0010010BCBD
:10077000704710B5141E73F1000408DA401C41F1F3
:10078000000192185B411A4301D120F0010010BD15
:100790002DE9F04D92469B4611B1B1FA81F202E08B
:1007A000B0FA80F220329046FFF78BFF04460F46E6
:1007B00040EA0A0041EA0B0153465A46084313D067
:1007C000114653EA010019D0C8F140025046FFF724
:1007D000A9FC05460E46504659464246FFF771FFB2
:1007E000084305D0012004E020463946BDE8F08DDD
:1007F0000020054346EAE0762C4337430A98630518
:10080000E40AA0EB08000022FD0A44EA47540A303B
:1008100002D500200146E9E7010510196941DDE92B
:10082000084500196941BDE8F04DA2E7C1F30A523D
:10083000C1F3130140F2FF3341F480119A4202DA0E
:1008400000200146704740F233439A42A2F23342FD
:1008500002DC5242FFF766BCFFF733BF064C074D80
:1008600006E0E06840F0010394E807009847103480
:10087000AC42F6D3FFF73EFCFC7000081C71000888
:10088000014800F0D8B90000E000002070B504462F
:1008900000688168C943C9071BD1816821F0010143
:1008A000816000F065FE05460EE000F061FE401B31
:1008B000022809D9A06A40F01000A062E06A40F066
:1008C0000100E062012070BD20688068C043C0075D
:1008D000EBD0002070BD10B50146406A826A12F06C
:1008E000500F05D0006A026BBDE810400846104763
:1008F000816A41F40071816201688968C1F34241F3
:1009000007290CD1C16851B9816A21F480718162D3
:10091000816AC90403D4816A41F00101816200F057
:1009200087F910BD10B5406A816A41F040018162CB
:10093000C16A41F00401C16200F07CF910BD10B53C
:10094000406A00F076F910BDF8B50026044600961E
:1009500000688168C943C90727D0816841F0010157
:100960008160134813490068B0FBF1F000E0401EBD
:1009700000900028FBD100F0FBFD054610E000F0E0
:10098000F7FD401B02280BD9A06A40F01000A062BE
:10099000E06A40F00100E06284F824600120F8BDC4
:1009A00020688068C043C007E9D10020F8BD00007E
:1009B000DC00002040420F00FEE700000122102171
:1009C000014800F0CFBD000000080140014800F0E0
:1009D000BDBB00002823002030B590F84050012412
:1009E000AC40C56B6C60046863604368102B03689F
:1009F00003D099600068C26030BD9A600068C16031
:100A000030BD7047054D4FF400442146284600F0A4
:100A1000A5FD642000F0ACFCF7E70000000C0140ED
:100A2000002200F001B8000030B50E4B0546012051
:100A30005C7A012C15D8587A00241C54587A03EBA0
:100A4000800045605D7A03F108002A54587A421C00
:100A50005A72303008703A2048702F208870CC705D
:100A6000002030BDAC250020F8B5002604460096D5
:100A700090F82400012808D0012084F824002046A2
:100A8000FFF704FF070002D04BE00220F8BDA06A88
:100A900020F4885040F00200A062022000F004FE22
:100AA00022490968B1FBF0F0400000E0401E0090D0
:100AB0000028FBD12046FFF747FF2068816841F0FE
:100AC0000801816000F054FD054604E000F050FD8F
:100AD000401B0A2811D8206880680007F6D42068D7
:100AE000816841F00401816000F042FD05460EE09E
:100AF00000F03EFD401B0A2809D9A06A20F0020040
:100B000040F01000A06284F824600120F8BD206845
:100B100080684007ECD4A06A20F0020040F0010099
:100B2000A06284F824603846F8BD0000DC00002094
:100B300070470000F8B50023009390F824201C466D
:100B4000012A12D0012280F824204A681F26072A91
:100B50000DD205686F6B521E02EB82029640B743BE
:100B60000E68964037436F6319E00220F8BD0568B0
:100B70000D2A0AD22F6BD21F02EB82029640B74396
:100B80000E68964037432F6309E0EF6A0D3A02EB97
:100B900082029640B7430E6896403743EF620A6878
:100BA000072605680A2A0AD3EF680A3A02EB4202CE
:100BB0009640B7438E6896403743EF6008E02F6950
:100BC00002EB42029640B7438E68964037432F614E
:100BD0000A68102A01D0112A20D1124D0268AA42B7
:100BE00017D195682D0219D4956845F400059560D4
:100BF0000968102912D10C490C4A0968B1FBF2F1BD
:100C000001EB8101490000E0491E00910029FBD160
:100C100004E0816A41F020018162012380F82440D0
:100C20001846F8BD00240140DC00002040420F00BF
:100C300070477047704710B50446006841688906E0
:100C400026D50168890723D5A16AC90603D4A16AFC
:100C500041F40071A1628168C1F34241072910D1BA
:100C6000E16871B9416821F020014160A06A20F477
:100C70008070A062A06AC00403D4A06A40F00100A2
:100C8000A0622046FFF7D4FF21686FF012000860D1
:100C90002068416809062ED5016849072BD5A16A4D
:100CA000C90603D4A16A41F40051A1628168C1F36D
:100CB0000231072909D04168490515D48168C1F37B
:100CC0004241072910D1E16871B9416821F08001E2
:100CD0004160A06A20F48050A062A06AC00503D4DD
:100CE000A06A40F00100A0622046FFF721FF2168C2
:100CF0006FF00C0008602068416849060DD5006857
:100D0000C0070AD0A06A40F48030A062204600F0FC
:100D100093F821686FF00100086010BD2DE9F041E3
:100D20004FF00006040035467DD0A06A002728B9A0
:100D3000E76284F82470204600F080F82046FFF730
:100D4000A5FDA16AC90600D420B1A06A40F0100038
:100D5000A06268E0A16A21F4885141F00201A16219
:100D60006268E169E3680A4346EA43010A43A1680D
:100D70004FF48076B14208D0012906D00021D4F882
:100D800014C0BCF1010F02D00AE03146F7E7F3B11D
:100D9000A36A43F02003A362E36A43F00103E36222
:100DA0002368D3F804C02CF4694C4CEA010CC3F856
:100DB00004C021688B68DFF874C003EA0C03134396
:100DC0008B60A168B1420BD0012909D00CE0DFF89B
:100DD00060C0A3690CEB43330B4343F40061DFE7CE
:100DE000218A0D05A5F580152168CB6A23F47003CF
:100DF0002B43CB62216889680E4B1940914208D180
:100E0000E762A16A21F0020141F00101A162BDE89F
:100E1000F081A06A20F0020040F01000A062E06AB9
:100E200040F00100E0620120F1E70000FDF7E1FF82
:100E300000E0FFFFFE0E1FFF7047000070B586B098
:100E400000240646009401940294039400681E490D
:100E5000884236D11D49886940F4007088618869EC
:100E600000F400700490886940F00400886188698B
:100E7000694600F0040004900E20009003200190C9
:100E8000134800F087FA144D1248C5E90004802089
:100E9000C5E9024080002861800068612020C5E922
:100EA0000604284600F0FEF908B1FFF7ABFD3562F5
:100EB0000022114612206E6200F0C4FB122000F0E6
:100EC000B5FB06B070BD00000024014000100240D8
:100ED0000008014008000240282300202DE9F047C7
:100EE000894604463B4900683B4F0E1D90468842A8
:100EF00001D0B84207D1306810F4702F03D001251B
:100F00002846BDE8F08794F8240001280CD0012081
:100F100084F824002046FFF717FD05004FF000017C
:100F200004D084F82410EBE70220EAE7A06A40F638
:100F30000162904340F48070A0622068B84218D1EA
:100F4000326812F4702F14D0A06A40F48010A062AE
:100F50003068400505D5A06A20F4005040F4805068
:100F6000A062A06AC0040AD5E06A20F00600E06230
:100F700006E0A26A22F48012A2624068E9E7E16218
:100F800084F82410216A15488862216A1448C862CE
:100F9000216A1448086321686FF002000860206825
:100FA000816841F480718160216843464A464C3132
:100FB000206A00F0A5F920688168C1F34241072941
:100FC000816803D041F48011816099E741F4A00168
:100FD000FAE700000024014000280140D70800087B
:100FE0003F0900082509000870B5044690F8240060
:100FF00001280DD0012084F824002046FFF7A4FC2E
:1010000001004FF0000205D084F82420084670BD8E
:10101000022070BDA06A40F60163984340F48070DE
:10102000A062224D2068224BA84218D11E6816F4F7
:10103000702F14D0A66A46F48016A6621E68760544
:1010400005D5A66A26F4005646F48056A662A66A1E
:10105000F6040AD5E66A26F00606E66206E0A66A07
:1010600026F48016A6624668E9E7E26284F8242046
:101070006FF0020202602068426842F02002426083
:1010800020688268C2F34242072A05D1A84208D1EB
:101090001A6812F4702F04D0826842F480128260C1
:1010A000B4E7826842F4A002F9E70000002801409A
:1010B0000424014010B590F821100024022903D027
:1010C0000421816301243DE001680A6822F00E02D8
:1010D0000A6001680A6822F001020A601A4A01687F
:1010E000914201D1012121E0174A1432914201D1EC
:1010F00010211BE0144A2832914201D1891515E0D4
:10110000114A3C32914201D189140FE00E4A50320B
:10111000914202D14FF4803108E00B4A643291428F
:1011200002D14FF4801101E04FF08071064A083A75
:101130005160012180F82110002180F82010416BBE
:1011400001B18847204610BD080002402DE9F05F3C
:10115000C16B0B6801680A68046C4FF0040C0CFA50
:1011600004FC4A4DDFF828A14A4E4B4FDFF82CB162
:10117000DFF82CE11CEA030F2DD05FEA427C2AD570
:101180000A68920603D40A6822F004020A60016821
:10119000A94201D1042119E0514501D1402115E0B6
:1011A000B14202D14FF4806110E0B94202D14FF454
:1011B00080410BE0594502D14FF4802106E0714592
:1011C00002D14FF4800101E04FF080612F4A083ACC
:1011D0005160C16A3BE04FF0020808FA04F818EACF
:1011E000030F4FF000094FF0010C35D05FEA827811
:1011F00032D50A68920605D40A6822F00A020A600B
:1012000080F821C00168A94201D1022119E05145AD
:1012100001D1202115E0B14202D14FF4007110E05C
:10122000B94202D14FF400510BE0594502D14FF4BD
:10123000003106E0714502D14FF4001101E04FF09A
:101240000071124A083A516080F82090816A0029A2
:101250001AD0BDE8F05F08470825A5401D4213D00D
:10126000120711D50A6822F00E020A6090F84010A9
:10127000C26B0CFA01F15160C0F838C080F821C08F
:1012800080F82090016BE2E7BDE8F09F0800024083
:101290001C0002403000024044000240580002405E
:1012A0006C00024030B528B302C8134A14230A4424
:1012B000B2FBF3F29200C263104A826302224277C9
:1012C0000B6843F6F0729343D0E900242243D0E93F
:1012D00002452C4322430469224344692243846922
:1012E00022431A430A6000214163012242770177B9
:1012F000084630BD012030BDF8FFFDBF00000240B0
:1013000070B5044690F82000002501280CD001207B
:1013100084F8200094F821600020012E06D084F883
:1013200020000225284670BD022070BD022684F8E8
:101330002160A0632068066826F00106066020464A
:10134000FFF74AFBE06A00282068016802D041F0FC
:101350000E0106E021F0040101602068016841F0FF
:101360000A0101602068016841F001010160D9E7CC
:1013700070B5044600F0FCF80546601C02D0044835
:101380000078044400F0F4F8401BA042FAD370BD8A
:10139000000000202DE9F84FDFF8A091002309F1AB
:1013A000040A0AF1040B1C464FF00F080BF1040E5F
:1013B00001270A68A7403A40BA4272D1DFF880C1DB
:1013C0004D68A5EB0C0665452BD00DDC032D34D004
:1013D00005DC35B3012D19D0022D2FD11BE0112DC5
:1013E00016D0122D2AD119E0B6F5881F19D006DCC7
:1013F000B6F5803F15D0B6F5801F1FD111E0B6F5C8
:10140000001F0ED0B6F5041F18D10AE0CB6815E016
:10141000CB681B1D12E0CB6808330FE0CB680C33A0
:101420000CE08B682BB1012B4FF0080303D0476110
:1014300004E0042302E0076100E00023FF2A01D852
:10144000064601E000F104064FEA840501D9A5F142
:101450002005376808FA05FC27EA0C0703FA05F5AA
:1014600047EA050737604D68ED0060D5354DAE6938
:1014700046F00106AE61AD6924F0030605F00105F2
:101480000095314D7719BE68A5072D0F08FA05FCA8
:1014900026EA0C06DFF8B4C0604503D14FF0000C1B
:1014A00017E044E0DFF8A8C0604502D14FF0010C1E
:1014B0000FE0DFF8A0C0604502D14FF0020C08E059
:1014C000DFF894C0604502D14FF0030C01E04FF00B
:1014D000040C0CFA05FC4CEA060CC7F808C04D6871
:1014E000D9F80060ED034D4601D5164300E0964360
:1014F0002E604D68DAF80060AD03554601D51643FD
:1015000000E096432E604D68DBF80060ED025D461A
:1015100001D5164300E096432E604D68DEF800606A
:10152000AD02754601D5164300E096432E60641C5B
:10153000102CFFF43DAFBDE8F88F0000000401401F
:10154000000011100010024000000140000801409E
:10155000000C01400010014000140140C2684A40E4
:10156000C26070470AB1016170470904FBE70000DF
:101570000148806870470000000000200248816830
:10158000027811448160704700000020074810B5C0
:10159000016841F010010160032000F073F80020A1
:1015A00000F006F800F024F8002010BD00200240F2
:1015B00070B50D4D04464FF47A712878B1FBF0F008
:1015C0000A490968B1FBF0F000F0DDFD48B9102CC4
:1015D00007D200222146501E00F034F800206C6033
:1015E00070BD012070BD000000000020DC00002064
:1015F0000C4808B5816941F001018161816901F000
:1016000001010091C16941F08051C161C069064981
:1016100000F080500090486820F0E06040F00070DA
:10162000486008BD001002400000014000F01F02A9
:10163000012191404009800000F1E020C0F8001134
:1016400070470000F0B40E4B1B68C3F30223C3F1D4
:101650000704042C00D904241D1D072D01D20023EA
:1016600000E0DB1E012606FA04F56D1E0D409D40CC
:101670009E40761E164045EA0601F0BC01F0CCBB48
:101680000CED00E0064A00F0070110684FF6FF037A
:10169000184040EA012003490843106070470000E9
:1016A0000CED00E00000FA0510B5014627A086B059
:1016B0001DC88DE81D0029A0294C00680490002059
:1016C000012922D0022939D010291CD16168226851
:1016D000D20118D5C1F38342C9031DF8020009D510
:1016E000616804AAC1F34041515C1E4AB2FBF1F1AA
:1016F000484301E01C4948436168490203D4400063
:101700000321B0FBF1F006B010BD216AC1F3012244
:10171000012A03D1890701D5D003F4E7022A05D1B4
:10172000616A890702D549F64040ECE7032AEAD10D
:1017300021688903E7D54FF22440E4E700F04EF931
:101740006168C1F38131491C4900DAE702030405ED
:10175000060708090A0B0C0D0E0F101001020000FD
:101760000010024000127A0000093D002DE9F84304
:1017700004460078344FC00752D0F8690025C000F5
:1017800008D4F86940F08050F861F869012500F04C
:10179000805000902D480168C90511D40168804629
:1017A00041F480710160FFF7E3FE064604E0FFF7B5
:1017B000DFFE801B642822D8D8F80000C005F6D5CB
:1017C000386A10F4407020D0A18801F44071814241
:1017D0001BD0386A1E49012220F440700A600022A2
:1017E0000A603862C00710D0FFF7C2FE064641F219
:1017F000883807E0FFF7BCFE811B414502D9032072
:10180000BDE8F883386A8007F4D5386A616820F447
:101810004070084338621DB1F86920F08050F861CB
:101820002078800705D57868A16820F440400843F7
:1018300078602078C00605D57868E16820F48000DB
:10184000084378600020DBE7001002400070004091
:10185000400442422DE9F047DFF8508104460E462D
:10186000D8F8000000F00700B0420CD2D8F8001001
:1018700021F007013143C8F80010D8F8000000F04B
:101880000700B0426DD12068494F810712D540074B
:1018900003D5786840F4E06078602078000703D5CD
:1018A000786840F4605078607868A16820F0F000B3
:1018B000084378602078C00742D06068012816D0BD
:1018C0003968022816D0890700294ADA796821F098
:1018D000030101437960FFF74BFE0546606841F262
:1018E000883101280ED00228894617D024E03968B3
:1018F0008903E9E78901E7E7FFF73AFE411B49451C
:1019000001D916E089467868C0F381000128F3D137
:1019100016E0FFF72DFE411B49450AD87868C0F351
:1019200081000228F5D10BE0FFF722FE411B49455B
:1019300002D90320BDE8F087786810F00C0FF3D1CE
:10194000D8F80010404601F00701B1420BD90168F8
:1019500021F0070131430160006800F00700B04248
:1019600001D00120E6E72078400705D57868E168D6
:1019700020F4E060084378602078000706D5786896
:10198000216920F4605040EAC100786000F036F828
:101990007968084AC1F30311515CC84006490860E0
:1019A0000020FFF705FE0020C4E7000000200240F1
:1019B00000100240E4700008DC00002004480549E3
:1019C00000684968044AC1F30221515CC84070476D
:1019D000DC00002000100240F470000804480549B3
:1019E00000684968044AC1F3C221515CC84070478D
:1019F000DC00002000100240F470000812A085B046
:101A00000FC88DE80F0014A0144B006804905968AB
:101A1000134801F00C02042A10D0082A0ED1C1F399
:101A20008342C9031DF802000AD5596804AAC1F30C
:101A30004041515C0A4A5043B0FBF1F005B0704799
:101A400008494843FAE700000203040506070809AD
:101A50000A0B0C0D0E0F10100102000000100240C6
:101A600000127A0000093D002DE9F84F0446007885
:101A7000B64DC00747D06868C0F38100012807D081
:101A80006868C0F38100022809D16868C00306D5E0
:101A90002868800337D5606800286ED033E060681E
:101AA000B0F5803F0BD010B1B0F5A02F11D0286851
:101AB00020F480302860286820F4802002E0286824
:101AC00040F480302860606888B1FFF751FD064619
:101AD00009E0286840F480202860F0E7FFF748FD1F
:101AE000801B642873D828688003F7D50BE0FFF7C4
:101AF0003FFD064604E0FFF73BFD801B6428F1D85C
:101B000028688003F7D42078DFF8448280074FF0FC
:101B1000010A4FF0000939D5686810F00C0F07D0A2
:101B20006868C0F38100022809D16868C00306D440
:101B30002868800713D5206901281ED10FE020698D
:101B4000A8B1C8F800A0FFF713FD064604E0FFF7B0
:101B50000FFD801B0228C5D828688007F7D52868A4
:101B6000616920F0F80040EAC10028600EE0C8F882
:101B70000090FFF7FDFC064605E0E5E0FFF7F8FC06
:101B8000801B022823D828688007F7D42078000714
:101B90002CD57049A069D8B1C1F800A0FFF7E8FCC6
:101BA000064604E0FFF7E4FC801B02280FD8686AB1
:101BB0008007F7D568484FF4FA510068B0FBF1F0A0
:101BC000009000BF0098411E0091FAD20EE07CE028
:101BD000C1F80090FFF7CCFC064604E0FFF7C8FC14
:101BE000801B022871D8686A8007F7D420784007E4
:101BF0005BD5E8690027C00008D4E86940F0805050
:101C0000E861E869012700F08050009053480168BE
:101C1000C90511D40168834641F480710160FFF762
:101C2000A7FC064604E0FFF7A3FC801B64284CD801
:101C3000DBF80000C005F6D5E06801280AD008B13D
:101C4000052813D0286A20F001002862286A20F0B5
:101C5000040002E0286A40F001002862E06841F2D6
:101C6000883B88B1FFF784FC064609E0286A40F00B
:101C700004002862EEE7FFF77BFC811B59455BD827
:101C8000286A8007F7D50BE0FFF772FC064604E0F0
:101C9000FFF76EFC811B59454ED8286A8007F7D4A0
:101CA0001FB1E86920F08050E861E069A8B3696875
:101CB000C1F38101022947D00228484606D0C8F85E
:101CC0006000FFF755FC044639E035E04746C8F8A8
:101CD0006000FFF74DFC064604E0FFF749FC801B5F
:101CE000022829D828688001F7D4206AB0F5803FFF
:101CF00005D16868A16820F4003008436860D4E921
:101D000008010843696821F4741108436860C7F842
:101D100060A0FFF72DFC044605E013E0FFF728FC68
:101D2000001B022808D828688001F7D50AE0FFF7D1
:101D30001FFC001B022802D90320BDE8F88F286889
:101D40008001F4D40020F8E70120F6E700100240FB
:101D50000000424280044242DC000020007000404B
:101D600090F85100704770B5040005D00025A562B9
:101D700094F8510010B104E0012070BD204600F03D
:101D800033F8022084F851002068016821F04001F6
:101D90000160D4E901010843D4E903121143084367
:101DA00061690843218B01F400710843E16908432C
:101DB000216A0843A16A084321680860A0690421D8
:101DC00001EA1040616A0843216848602168E06ABE
:101DD00008612068C16921F40061C1616565012065
:101DE00084F85100002070BD30B585B00024009407
:101DF00001940294039400681449884223D1144842
:101E0000816941F480518161816901F480510491BB
:101E1000816941F00401816180690E4D00F0040088
:101E20000490A020009002200190032003906946B6
:101E30002846FFF7AFFA4020CDE90004694628465E
:101E40000294FFF7A7FA05B030BD00000030014052
:101E500000100240000801402DE9F84F044690F8B8
:101E6000500000271E4691460D4601280DD04FF028
:101E7000010B84F850B0FFF77BFB804694F85100CB
:101E8000BA46012804D0022792E00220BDE8F88F6C
:101E9000002D79D0B9F1000F76D0032084F85100DD
:101EA000C4F854A02563A4F83490A4F83690C4F87C
:101EB00038A0A4F83CA0A4F83EA0C4F844A0C4F8FC
:101EC00040A0A068B0F5004F04D12068016841F43B
:101ED0008041016020680168490603D4016841F02F
:101EE00040010160E068B0F5006F606804D020B385
:101EF000E08E012821D039E010B1E08E012818D100
:101F0000216835F8020BC86006E0206881688907FF
:101F100006D535F8021BC160E08E401EE08608E061
:101F200086B3701C05D0FFF723FBA0EB0800B0427E
:101F300028D2E08E0028E8D11BE0216815F8010BBB
:101F4000087306E020688168890706D515F8011B2B
:101F50000173E08E401EE08608E09EB1701C05D043
:101F6000FFF706FBA0EB0800B0420BD2E08E002882
:101F7000E8D13346012202212046CDF8008001F04D
:101F800063FA10B1032713E011E0424631462046C0
:101F900001F020FA18B101272020606508E0A06850
:101FA00018B92068C16880680090606D00B1012791
:101FB00084F851B084F850A0384667E72DE9F84F0F
:101FC000044690F850000127DDF828809B4616460D
:101FD0000D464FF0000901280ED0012084F8500072
:101FE000FFF7C6FA824694F85100616801280CD0C8
:101FF000B1F5827F07D102E00220BDE8F88FA16829
:1020000009B9042801D00220A2E045B13EB1BBF1DC
:10201000000F04D094F85100012802D004E0012000
:1020200096E0052084F8510000206065A663A4F8BE
:102030003EB0A4F83CB02563A4F836B0A4F834B0A0
:102040002064606420680168490603D4016841F097
:1020500040010160E068B0F5006F606804D0D0B363
:10206000E08E012838D063E010B1E08E01282BD13A
:10207000216835F8020BC860E08E401EE08623E040
:1020800067B1E08E50B120688168890706D535F8C0
:10209000021BC160E08E401EE0860027E08F50B139
:1020A00020688168C90706D0C06826F8020BE08F57
:1020B000401EE0870127B8F1FF3F05D0FFF758FA2F
:1020C000A0EB0A01414542D2E08E0028D8D1E08F32
:1020D0000028D5D132E0FFE7216815F8010B08731D
:1020E000E08E401EE08623E067B1E08E50B12068AC
:1020F0008168890706D515F8011B0173E08E401E23
:10210000E0860027E08F50B120688168C90706D0BB
:10211000C06806F8010BE08F401EE0870127B8F188
:10212000FF3F05D0FFF724FAA0EB0A0141450ED28C
:10213000E08E0028D8D1E08F0028D5D14346012277
:1021400002212046CDF800A001F07EF910B1032055
:10215000814610E052464146204601F03BF920B14D
:1021600020204FF00109606505E0A06818B92068DB
:10217000C16880680090012084F85100002084F834
:102180005000484639E710B5401EB0F1807F01D3BA
:10219000012010BD4FF0E02460610F21601700F0B6
:1021A0003BFE0020A06107202061002010BD704789
:1021B000704710B590F83C20012A25D0012280F804
:1021C0003C20CA688C6822F4407222434C6822F496
:1021D000806222430C6822F4006222430C6922F4DC
:1021E000805222434C6922F400522243896922F42E
:1021F00080420A43002322F400420A4301684A64F1
:1022000080F83C30002010BD022010BD30B590F8A1
:102210003C20012A20D0012380F83C30022280F8A3
:102220003D200268546824F07004546002685468C9
:102230000D682C4354600268946824F08004946014
:102240000268946849680C43946080F83D3000212E
:1022500080F83C10084630BD022030BD10B50400A7
:1022600003D094F83D0010B107E0012010BD00201C
:1022700084F83C00204600F00DF8022084F83D0070
:10228000211D206801F0F6F9012084F83D000020AE
:1022900010BD000008B50068194A1A49904208D1DB
:1022A000886940F400608861886900F400600090EB
:1022B00008BDB0F1804F14D0134A9042F8D1C869DC
:1022C00040F00200C861C869002200F002000090DE
:1022D00011461D20FFF7B6F91D20BDE80840FFF7A5
:1022E000A5B9C86940F00100C861C869002200F0C2
:1022F0000100009011461C20FFF7A4F91C20ECE718
:10230000002C014000100240000400400168CA682F
:1023100042F00102CA600068016841F001010160F9
:10232000002070470168CA6822F00102CA60006894
:10233000016A41F21112114207D1016A9210114251
:1023400003D1016821F0010101600020704770B5E0
:10235000044690F83C00012817D0012584F83C5031
:10236000022084F83D002068826822F0770222F47F
:102370007F4282600868502836D00DDC202858D073
:1023800005DC80B3102840D150E0022070BD302819
:1023900052D0402839D13EE060282DD070280BD093
:1023A000B0F5805F03D0B0F5005F2ED110E020685B
:1023B000816821F0070109E0CB68D1E9012120689B
:1023C00001F099F92068816841F0770181601CE093
:1023D000CB68D1E90121206801F08DF9206881687E
:1023E00041F48041F2E71EE0CA684968206801F0C4
:1023F0003DFA5021206806E0CA684968206801F06B
:1024000046FA6021206801F080F984F83D500020F0
:1024100084F83C0070BDCA684968206801F026FA5B
:1024200040212068EFE700212068ECE710212068B8
:10243000E9E720212068E6E730212068E3E77047DC
:1024400070B50446006801694FF00005C94389076B
:1024500015D4C168C943890711D4E91E016101205F
:102460002077206880698007204602D0FFF7E7FFC9
:1024700004E000F0BFF8204600F041F9257720681D
:102480000169C943490717D4C168C943490713D42F
:102490006FF004010161022020772068806910F448
:1024A000407F204602D0FFF7CAFF04E000F0A2F808
:1024B000204600F024F9257720680169C9430907FF
:1024C00016D4C168C943090712D46FF0080101612D
:1024D000042020772068C0698007204602D0FFF7DB
:1024E000AEFF04E000F086F8204600F008F92577FA
:1024F00020680169C943C90617D4C168C943C90620
:1025000013D46FF010010161082020772068C069A2
:1025100010F4407F204602D0FFF791FF04E000F066
:1025200069F8204600F0EBF8257720680169C94377
:10253000C90708D1C168C943C90704D1891E01610F
:10254000204600F0F5F820680169C943090609D45E
:10255000C168C943090605D46FF0800101612046B6
:10256000FFF725FE20680169C943490609D4C168FF
:10257000C943490605D46FF040010161204600F0CF
:10258000D8F820680169C94389060BD4C168C943DA
:10259000890607D46FF0200101612046BDE8704034
:1025A000FFF706BE70BD000000B585B000210091A8
:1025B00001910291039100680B49884212D10B48A6
:1025C000816941F0040181618069694600F004007D
:1025D00004904FF4E06000900220019003900448C2
:1025E000FEF7D8FE05B000BD002C014000100240EF
:1025F00000080140704770B5044690F83C000D4655
:1026000001280DD0012684F83C60022084F83D00AA
:1026100042B1042A18D0082A2AD00C2A4DD139E018
:10262000022070BD206801F079F82068816941F0CE
:10263000080181612068816921F0040181612068BD
:1026400081692A69114311E0206801F093F820683C
:10265000816941F4006181612068816921F48061B0
:102660008161206881692A6941EA0221816124E04F
:10267000206801F0ADF82068C16941F00801C1612E
:102680002068C16921F00401C1612068C1692A691B
:10269000114311E0206801F0C7F82068C16941F4D6
:1026A0000061C1612068C16921F48061C161206855
:1026B000C1692A6941EA0221C16184F83D600020B4
:1026C00084F83C0070BD10B5040003D094F83D00C0
:1026D00010B107E0012010BD002084F83C00204626
:1026E00000F00CF8022084F83D00211D206800F065
:1026F000C1FF012084F83D00002010BD70477047E5
:1027000010B504460068012200F0EAFF074920687E
:10271000884203D1416C41F4004141642068016862
:1027200041F001010160002010BD0000002C0140BB
:10273000704770477047000070B502680446106823
:10274000D168536910F00F0F50D003F0010501F468
:10275000907635435DD0C20705D0CA0503D5E26B3C
:1027600042F00102E263420705D5DA0703D0E26BCB
:1027700042F00202E263820705D5DA0703D0E26B7A
:1027800042F00402E263020705D5DA0703D0E26BE8
:1027900042F00802E263E26B002A33D0800604D5DF
:1027A000880602D5204601F09AF820684069E16B5E
:1027B000C0F38010090700D428B3204601F081F847
:1027C0002068416949061AD5416921F040014161FB
:1027D000606BA0B11B494163606BFEF76BFC002886
:1027E00010D0606B416BBDE870400847830610D580
:1027F0008B060ED52046BDE8704001F070B820462B
:10280000FFF798FF70BD2046FFF794FF0020E063BC
:1028100070BD030606D50B0604D52046BDE8704002
:1028200001F060B94006F3D54806F1D5D1682046DD
:1028300021F04001D160202184F8391000F065F9C1
:1028400070BD0000B338000870B5040004D094F8DF
:102850003900002510B106E0012070BD84F8385021
:10286000204600F023F8242084F839002068C1684D
:1028700021F40051C160204601F07CF82068016914
:1028800021F4904101612068416921F02A014161F0
:102890002068C16841F40051C160E563202084F8DC
:1028A000390084F83A00002070BD000070B586B091
:1028B000002400940194029403940068304E31493E
:1028C00002220323304DB0422DD1886940F480406C
:1028D0008861886900F480400490886940F00800AD
:1028E00088618869694600F0080004904020CDE9BD
:1028F000000203932846FEF74DFD8020CDE9000439
:10290000694628460294FEF745FD2049486840F094
:10291000E06040F004004860002211462520FEF7E8
:1029200091FE252028E01A4EB04227D1C86940F414
:102930008020C861C86900F480200490886940F054
:10294000080088618869694600F008000490301525
:10295000CDE9000203932846FEF71CFDF014CDE9F3
:102960000004694628460294FEF714FD0022114631
:102970002720FEF767FE2720FEF758FE06B070BD41
:102980000038014000100240000C014000000140EE
:10299000004800402DE9F843044690F83A001E46EE
:1029A00017460D46202850D1A5B19FB194F83800A4
:1029B00001284AD0012084F838004FF00008C4F8FC
:1029C0003C80222084F83A00FEF7D2FDA78581469C
:1029D000E78530E00120BDE8F883E08D401EE0850A
:1029E000A0684B46B0F5805F4FF000024FF0200129
:1029F0002046009604D001F0A6F898B10320EAE73B
:102A000001F0A1F80028F9D1206900282068406869
:102A100003D0C1B225F8011B0DE0C0F3080125F871
:102A2000021B08E0206900282068406801D000F0FF
:102A30007F0005F8010BE08D0028CED1202084F81E
:102A40003A0084F838800020C5E70220C3E77047C9
:102A50002DE9F843044690F839001E4617460D4606
:102A6000202850D1A5B19FB194F8380001284AD050
:102A7000012084F838004FF00008C4F83C80212081
:102A800084F83900FEF774FDA7848146E78426E0C8
:102A90000120BDE8F883E08C401EE084A0684B462E
:102AA000B0F5805F4FF000024FF0800120460096A5
:102AB00003D001F048F8E8B90DE001F044F8C8B9D6
:102AC00028882168C0F308004860206908B16D1C9F
:102AD00005E0AD1C03E0216815F8010B4860E08CAF
:102AE0000028D8D14B46002240212046009601F014
:102AF0002AF808B10320CCE7202084F8390084F8B4
:102B000038800020C5E70220C3E77047FEE70000D9
:102B10003EB500211D48009101911B4A02910260BF
:102B20009215C0E90221416104244FF4602204613E
:102B3000C2614160FEF7F2F810BB012000900190E5
:102B40000620029069461148FDF7F4FFC0B9022043
:102B50000090019069460D48FDF7ECFF80B9032015
:102B60000090019069460948FDF7E4FF40B9102044
:102B7000CDE9000469460548FDF7DCFF002801D0D7
:102B8000FDF740FF3EBD000000240140E0000020B2
:102B900010B504490448FDF743FF0249491E087077
:102BA00010BD0000A5000020900000202DE9F0439A
:102BB00085B0002421480094019402940394816913
:102BC00041F020018161816901F020010491816956
:102BD00041F004018161816901F00401049181697E
:102BE00041F0080181618069DFF8548000F008003D
:102BF00041F210050490002229464046FEF7B2FC3F
:102C0000DFF840904FF46046002231464846FEF718
:102C1000A9FC0127CDE90057022569464046CDE9C8
:102C20000245FEF7B7FB69464846CDE90245CDE9C6
:102C30000067FEF7AFFB05B0BDE8F083001002406F
:102C400000080140000C01400F4810B50D4901601B
:102C50004FF48271416000218160C1604FF40072C5
:102C60000161C0E905122822C0E9072141628162A1
:102C70000A21C162FFF777F8002801D0FDF7C2FEF4
:102C800010BD0000003001401001002010B594B0CC
:102C900000240E940F941094119412941C216846F1
:102CA0001394FDF756FA1C2107A8FDF752FA29489C
:102CB000274901600121C0E901144FF47A71C0E98C
:102CC000031444618461FFF7C9FAD0BB4FF480500C
:102CD0000E900EA91F48FFF73AFB90BB1D48FFF767
:102CE000F2FC70BB129412A91A481394FFF78EFAE3
:102CF00038BB6020CDE90004029403940494059449
:102D00000022694613480694FFF775FCC8B90422EF
:102D100069461048FFF76FFC98B9082269460D48CC
:102D2000FFF769FC68B90794089409944FF40050C0
:102D30000A94CDE90B4007A906480D94FFF739FA2C
:102D400008B1FDF75FFE0348FFF72EFC14B010BD7D
:102D5000002C01406801002010B586B00024144802
:102D6000009401940294039404944FF080410594DC
:102D70000160E821C0E901147821C0E903148461ED
:102D8000FFF76CFA78B94FF4805000906946084814
:102D9000FFF7DDFA38B9049404A905480594FFF754
:102DA00035FA002801D0FDF72DFE06B010BD000059
:102DB000A801002010B586B00024154800940194A5
:102DC00002940394049411490594016044F2506103
:102DD000C0E901140121C0E903148461FFF73EFA40
:102DE00078B94FF48050009069460948FFF7AFFA70
:102DF00038B9049404A906480594FFF707FA002897
:102E000001D0FDF7FFFD06B010BD0000000400403A
:102E1000E8010020FEE770470907090E002806DADE
:102E200000F00F0000F1E02080F8141D704700F161
:102E3000E02080F8001470477047000006480179D0
:102E400011B10179491E01714179002902D04179FE
:102E5000491E417170470000AC0000207CB541F66E
:102E6000FF75FDF7ABFD0024FF2000F0DDFA641CC8
:102E70000A2CF9DB00F0A6FA40208DF800000020B3
:102E80008DF801008DF802008DF803008DF8040024
:102E900095208DF8050000246E46305D00F0C4FAE0
:102EA000641C062CF9DB00E06D1E00F0A3FA01287B
:102EB00001D0002DF8D1FDF781FDFF2000F0B4FA1C
:102EC0000149012048707CBD0C00002010B5064C63
:102ED0003220207000F08EFA00F08CFAFF2802D029
:102EE00021780029F8D110BDB100002070B5104D37
:102EF00004460A200E46287000F07CFAFF2803D012
:102F0000FE2805D0002070BD28780028F4D1F9E70C
:102F1000651C00F06FFA20706C1C00F06BFA2870D2
:102F2000B61EF5D100F066FA00F064FA012070BD1B
:102F3000B000002070B50C460546FFF7C7FFFF281C
:102F400001D0FF2070BD284600F06EFA200E00F080
:102F50006BFAC4F3074000F067FAC4F3072000F0EF
:102F600063FAE0B200F060FA0020402D02D0482D54
:102F700002D002E0952000E0872000F055FA4C2DA9
:102F800001D100F037FA0A2400F034FA0106D9D54D
:102F9000641E14F0FF04F7D170BD2DE9F0410E4618
:102FA00005460024FFF792FFFF2828D1304600F0A5
:102FB0003BFAFD2E1FD00026287800F035FA6878FD
:102FC000AD1C00F031FA761E16F0FF06F4D100F0C9
:102FD00011FA00F00FFA08E000F00CFA074600F0D2
:102FE0001F00052803D0641CE4B2402CF4D900F083
:102FF00001FA0028FBD007F01F00052802D00020AE
:10300000BDE8F0810120FBE72DE9F84310B1012074
:10301000BDE8F883484E307880077DD4FFF71EFF67
:1030200000F0D0F9002739464020FFF783FF012840
:1030300070D1DFF80881642188F800104FF4D57151
:103040004820FFF777FF01280DD000217720FFF7F8
:1030500071FF012840D800216920FFF76BFF01288C
:103060003AD8022739E000246D4600F0C3F928550C
:10307000641CE4B2042CF8D39DF80200012849D165
:103080009DF80300AA2845D14FF08049444600210D
:103090007720FFF74FFF012804D849466920FFF742
:1030A00049FF10B120780028F1D1207890B3002199
:1030B0007A20FFF73FFF68BB002400F09BF92855FA
:1030C000641CE4B2042CF8D39DF80000400601D53E
:1030D00006271FE002271DE001274446022F4FF07C
:1030E000000101D0412006E07720FFF723FF0128EF
:1030F00004D800216920FFF71DFF10B120780028B7
:10310000ECD1207828B14FF400715020FFF712FF66
:1031100000B10027B77000E00BE0FDF74FFC00F0B6
:1031200069F927B1307820F00100307001E000200B
:10313000707030786CE700000C000020B0000020B8
:103140007FB515460E4610B1042004B070BD0124B1
:103150004B4A052E04D01078C00715D00320F4E7A1
:1031600047492878497828B1012807D0022808D093
:10317000042482E031B10020507003E0FFF76EFEBE
:1031800000E06970002478E000F01CF90B2E52D0AA
:1031900005DCE6B3012E07D0022E69D142E00C2EE9
:1031A0004CD00D2E64D155E000214920FFF7C2FE1E
:1031B00070BB10216846FFF799FE48B39DF80010D8
:1031C0000120B0EB911F0AD19DF808209DF809104D
:1031D00000EB0220084400048009286038E09DF8D4
:1031E00005009DF80A1000F00F0000EBD1109DF8CB
:1031F00009109DF8072001F0030100EB41009DF844
:103200000810890901EB82019DF8062001E00DE01C
:103210002FE002F0030201EB8221C01F491C814014
:10322000296015E04FF40070288011E0FFF74EFE92
:10323000FF280DD01DE00021492001E000214A2097
:10324000FFF778FEA8B910212846FFF74FFE80B19E
:1032500000240EE000217A20FFF76CFE40B9002424
:1032600000F0C8F8641CE4B205F8010B042CF7D395
:103270000424FDF7A3FB00F0BDF8204665E700003D
:103280000C0000202DE9F0411C4616460D4638B9C9
:1032900034B11D480178C90704D00320BDE8F0818E
:1032A0000420FBE78078400700D4560200F08AF83B
:1032B0004FF40077012C314604D05220FFF73AFE3C
:1032C00058B118E05120FFF735FEA0B9394628461D
:1032D000FFF70CFE78B100240DE03E46314628464B
:1032E000FFF704FE18B1641E05F50075F6D1002144
:1032F0004C20FFF71FFEFDF761FB00F07BF80CB1DF
:103300000120CBE70020C9E70C00002008B1012014
:1033100070470148007870470C0000202DE9F0410B
:103320001C4616460D4638B934B1254F3878C007CB
:1033300004D00320BDE8F0810420FBE73878400783
:1033400001D50220F6E7B878400700D4560200F015
:1033500039F8012C10D0B878800707D500217720E4
:10336000FFF7E8FD21465720FFF7E4FD31465920DD
:10337000FFF7E0FD60B11AE031465820FFF7DAFDB3
:10338000A8B9FE212846FFF708FE80B100240EE010
:10339000FC212846FFF701FE18B1641E05F50075F3
:1033A000F6D1FD210020FFF7F8FD00B90124FDF75B
:1033B00005FB00F01FF80CB10120BBE70020B9E7C6
:1033C0000C000020002210210148FEF7CBB80000BD
:1033D0000008014038B50B460092044600228021C7
:1033E00000F032F8002804D0606D40F020006065E5
:1033F000032038BD0EB5FF208DF8080000208DF8A1
:1034000004000848FEF7ACFC0128FAD14FF47A70AA
:103410000090012301AA02A90248FEF7CFFD9DF802
:1034200004000EBD1001002001B50648FEF798FC0F
:103430000128FAD14FF47A73012269460148FEF758
:103440000BFD08BD100100202DE9F0411D46174677
:103450000E460446DDF8188035E0681C33D02DB1E7
:10346000FEF786F8A0EB0800A8422CD3206841683C
:1034700021F0E00141606068B0F5827F0BD1A06867
:10348000B0F5004F02D0B0F5806F04D1206801681C
:1034900021F040010160A06AB0F5005F0AD1206808
:1034A00001684DF6FF72114001602068016841F427
:1034B00000510160012084F85100002084F8500080
:1034C0000320BDE8F0812068806836EA000004D05F
:1034D0000020B842C1D10020F3E70120F9E770478E
:1034E000074810B50178491C017001780A2903D3F7
:1034F00000210170FFF7A2FCBDE81040FEF73EB8C6
:10350000AC00002030B593B028216846FCF721FEBE
:1035100014210AA8FCF71DFE002401210F94109429
:103520000804CDE90010119412940294022504912C
:10353000CDE907504FF4E01009906846FEF794FA81
:1035400098B90F20CDE90A056802CDE90C400221A7
:103550000AA80E94FEF77EF938B9A80311900F95CA
:103560000FA8FEF703F9002801D0FDF74BFA13B0BE
:1035700030BD00000D48016841F001010160416863
:103580000B4A1140416001680A4A1140016001681C
:1035900021F480210160416821F4FE0141604FF473
:1035A0001F0181600449C003086070470010024099
:1035B0000000FFF8FFFFF6FE08ED00E070B52048C0
:1035C000FEF73EFF1F4C20490025A0681F4E401CFF
:1035D0000A1DA060092808D2DFE800F00705080EE0
:1035E0001016191F21006420086070BD1848FDF7EF
:1035F000FBFC3068E06170BD0D6070BD1448FDF7E4
:10360000F3FC3068206170BDCD20106070BD1048A3
:10361000FDF7EAFC3068606170BD156070BD0C4854
:10362000FDF7E2FC3068A061D4E90412891A216236
:10363000E169401A6062A560E068401CE06070BD0E
:10364000A8010020AC000020382C014004230020F9
:10365000E000002010B50548FEF7F2FEBDE810407E
:103660004FF480510248FDF779BF0000E8010020C7
:1036700000080140F0B50268164C174D174E4FF088
:103680008047A04205D0B84203D0A84201D0B04242
:1036900003D122F070034A681A43A04205D0B84211
:1036A00003D0A84201D0B04203D122F44073CA68CB
:1036B0001A434B6922F08002134303608A68C26296
:1036C0000A688262A04201D1096901630121416156
:1036D000F0BD0000002C0140000400400008004044
:1036E00010B50123046A8B409C430462036A8A403C
:1036F0001343036210BD10B5846842EA032224F428
:103700007F440A432243826010BD826822F0700227
:103710000A4342F0070181607047000030B5026A39
:1037200022F001020262036A4268846924F0730590
:103730000C682C4323F002058B682B430C4DA842E8
:1037400006D123F00805CB6843EA050323F0040300
:1037500007D14D6922F4407245EA02058A6942EABE
:1037600005024260846149684163036230BD000024
:10377000002C014030B5026A22F010020262026A97
:10378000436884690D6824F4E64444EA05248D689E
:1037900022F0200242EA05120C4DA84206D1CD6863
:1037A00022F0800242EA051222F0400207D14D6960
:1037B00023F4406343EA85038D6943EA850343604C
:1037C000846149688163026230BD0000002C0140C1
:1037D00030B5026A22F480720262036A4268C469E8
:1037E00023F4007324F073050C682C438D6843EABE
:1037F00005230C4DA84206D1CD6823F4006343EAAB
:10380000052323F4806307D14D6922F4405242EA34
:1038100005128D6942EA05124260C4614968C163BC
:10382000036230BD002C014030B5026A22F48052A0
:103830000262036A4268C4690D6824F4E64444EAFB
:1038400005248D6823F4005343EA0533064DA8424E
:1038500004D14D6922F4804242EA85124260C4617B
:1038600049680164036230BD002C014010B5046A50
:10387000036A23F001030362836923F0F00343EA40
:10388000021324F00A020A438361026210BD10B5DC
:10389000036A23F0100303628469036A24F470440A
:1038A00044EA023223F0A00343EA0111826101627B
:1038B00010BD10B5406A0021C185C184FEF73AFFF2
:1038C00010BD0168CA6822F49072CA6001684A6932
:1038D00022F001024A61202180F83A10704710B5A9
:1038E00090F83A10222901D0022010BD8168B1F56C
:1038F000805F11D00169002901681FD0496801F07B
:103900007F03816A4A1C82620B70C18D491E0904C3
:10391000090CC18518D02BE00269816A002A02686F
:10392000526805D0D2B20A80816A491C8162ECE7F4
:10393000C2F308020A80816A891CF7E74A68816A33
:103940004B1C83620A70E0E70168CA6822F020021B
:10395000CA600168CA6822F48072CA6001684A6954
:1039600022F001024A61202180F83A10FFF76FF837
:10397000002010BD2DE9F041044600680169E268AD
:1039800021F4405111430161A1682069014360693C
:1039900001432068C26841F20C639A430A43C26043
:1039A00020684169A26921F44071114341614C4989
:1039B00020686426322788423CD1FEF70FF800EBDE
:1039C000C00101EB001061688900B0FBF1F5FEF762
:1039D00005F800EBC00101EB00106168B8468900F2
:1039E000B0FBF1F0B0FBF6F06FF01801484305EBC7
:1039F000800107EB0110B0FBF6F000F0F005FDF7D9
:103A0000EDFF00EBC00101EB001061688900B0FB25
:103A1000F1F0B0FBF6F005EB0015FDF7DFFF00EB72
:103A2000C00101EB001061688900B0FBF1F7FDF700
:103A3000D5FF3BE0FDF7C2FF00EBC00101EB00103A
:103A400061688900B0FBF1F5FDF7B8FF00EBC0013C
:103A500001EB00106168B8468900B0FBF1F0B0FBE3
:103A6000F6F06FF01801484305EB800107EB0110F9
:103A7000B0FBF6F000F0F005FDF7A0FF00EBC00191
:103A800001EB001061688900B0FBF1F0B0FBF6F0CB
:103A900005EB0015FDF792FF00EBC00101EB0010F4
:103AA00061688900B0FBF1F7FDF788FF00EBC0010A
:103AB00001EB001061688900B0FBF1F0B0FBF6F09B
:103AC0006FF01801484307EB800108EB0110B0FBD1
:103AD000F6F0216800F00F0028448860BDE8F0810E
:103AE0000038014090F83910212901D00220704798
:103AF0008168B1F5805F016A0BD04A1C02620268DE
:103B000009785160C18C491E0904090CC1840ED08A
:103B100017E009880268C1F30801516001690029B2
:103B2000016A02D0491C0162ECE7891CFBE70168CD
:103B3000CA6822F08002CA600068C16841F0400192
:103B4000C160002070472DE9F0411E4617468846A7
:103B50000446069D1CE0681C1AD025B1FDF708FD3F
:103B6000801BA84214D92068C16821F4D071C160BB
:103B70002068416921F001014161202084F8390069
:103B800084F83A00002084F838000320BDE8F08172
:103B90002068016838EA010004D00020B842DAD079
:103BA0000020F3E70120F9E710B5642301220B4957
:103BB0000B48FEF7EFFE0A48FEF7BEFD0748094B2B
:103BC000411E027888781A54401CC0B288700D28B3
:103BD00003D30120C8700020887010BDAD00002004
:103BE000280200206C2300200148FEF7A5BD00003C
:103BF00068020020FFF708BAFFF7A2BAFFF742BB3E
:103C0000FFF784BBFFF78ABBFEE700000FB4084B49
:103C100010B504A902AA039800F0DEF8044602A930
:103C2000002000F070FC204610BC5DF814FB000082
:103C30000745000802E008C8121F08C1002AFAD18F
:103C400070477047002001E001C1121F002AFBD11C
:103C5000704700002DE9FF5F82B00021DDE90430EC
:103C6000020DDDF840B0034318D044F61050A2F224
:103C7000FF3242431514119801281FD0A5EB0B0009
:103C8000401C5FEA000A4FF000064E4FDFF8389103
:103C9000B046504615D5CAF1000413E0119801242E
:103CA0004AA3012801D16FEA0B010298119AC0E9D9
:103CB0000031C0E9024206B0BDE8F09FCBF1000040
:103CC000DFE704460021404A491842EB0450CDE9A1
:103CD000001012E0E00707D032463B464046494616
:103CE000FCF7F5FA8046894632463B4610461946AF
:103CF000FCF7EDFA06460F466410002CEAD1DDE928
:103D00000401DDE90023BAF1000F06DAFCF7DFFA5F
:103D100042464B46FCF7DBFA05E0FCF74AFB42461D
:103D20004B46FCF746FB04460E460022284BFCF7A8
:103D30004DFC03D84FF0FF30014607E00022254B31
:103D400020463146FCF71CFAFCF770FD102409E010
:103D5000002C0ADB0A220023FCF782FC039B303292
:103D60001A55641E50EA0102F2D1641C039AC4F190
:103D700011031444119A012A03D0012208430DD1E2
:103D80000AE0084304D000204FF0110B119072E7B5
:103D9000A3EB0B056D1E0DE05B4504DD4FF000024B
:103DA00005F1010504E003DA4FF00002A5F1010579
:103DB000002AECD002981199C0E90231C0E900450F
:103DC00079E70000000014400000F03F30000000E0
:103DD0000000F0430000E03F2DE9FF4F95B09B4607
:103DE0008946064600250FE2252877D1002427467C
:103DF000F84A0121059400E0044316F8013F203BF6
:103E000001FA03F01042F7D130782A2811D06FF070
:103E10002F033078A0F13002092A16D8059A44F011
:103E2000020402EB820203EB42021044761C05906E
:103E3000EFE759F8042B0592002A03DA504244F4C4
:103E40000054059044F00204761C30782E2816D1D8
:103E500016F8010F44F004042A280DD06FF02F0249
:103E60003078A0F13003092B09D807EB870302EB68
:103E70004303C718761CF3E759F8047B761C3078A7
:103E80006C280FD006DC4C2817D068280DD06A2883
:103E900014D104E0742810D07A280FD10DE044F436
:103EA00000140AE044F4801401E044F440147278F1
:103EB000824202D104F58014761C761C3078662884
:103EC0000BD013DC582877D009DC002875D04528A2
:103ED000F6D04628F4D047281AD19DE118E063288F
:103EE00035D0642879D0652812D195E1702873D037
:103EF00008DC6728F1D069286FD06E280DD06F28B4
:103F000006D1B5E073282CD0752875D0782874D0E8
:103F10005A46179990476D1C75E1C4F30250022868
:103F200009D003280DD0D9F8001004280DD00D6059
:103F300009F1040967E1D9F80010EA17C1E9005254
:103F4000F6E7D9F800100D80F2E70D70F0E719F8E8
:103F5000041B8DF8001000208DF80100EA460120B6
:103F600003E059F804AB4FF0FF3061074FF0000158
:103F700002D40DE008F101018846B9420FDA80450C
:103F8000F8DB1AF808100029F4D108E008F1010163
:103F900088468142FADB1AF808100029F6D1059804
:103FA0005B46A0EB080721463846179A00F094FAC2
:103FB000284400EB080507E04DE029E10DE01AF880
:103FC000010B5A4617999047B8F10108F7D25B46A2
:103FD00021463846179A13E142E00A220092C4F3C0
:103FE00002524FF0000A022A08D059F804CB032AE3
:103FF0004FEAEC710AD00DE029E02AE009F107014F
:1040000021F00702F2E802C1914609E00FFA8CFCA8
:104010004FEAEC71042A03D14FFA8CFC4FEAEC71A1
:10402000002907DA0A460021DCF1000C61EB0201ED
:104030002D2202E0220504D52B228DF80420012236
:1040400003E0E20701D02022F7E7904659E00A2179
:1040500002E010220DE010214FF0000A00910BE069
:1040600010224FF0000A44F004040827009203E0F5
:1040700008224FF0000A0092C4F30252022A05D02F
:1040800059F804CB0021032A08D009E009F10701FF
:1040900021F00702F2E802C1914605E01FFA8CFC0C
:1040A000042A01D10CF0FF0C4FF00008220728D59C
:1040B000702806D0009B83F0100353EA0A0305D052
:1040C0000EE040228DF80420012208E05CEA0102A3
:1040D00006D030228DF804208DF80500022290468B
:1040E000009B83F0080353EA0A030AD15CEA010249
:1040F00001D1620705D530228DF804204FF0010868
:104100007F1E582804D034A003900EA802900DE022
:1041100036A0F9E753466046009AFCF7A1FA8446B8
:104120000398825C0298401E029002705CEA0100D3
:10413000F0D1029806A9081A00F1200A600702D5FA
:1041400024F4803400E00127574502DDA7EB0A0084
:1041500000E0002000EB0A01009005984144401A5D
:104160000590E00306D45B462146179A059800F0B7
:10417000B3F90544002706E001A85A46C05D179927
:1041800090476D1C7F1C4745F6DBE0030CD55B4672
:104190002146179A059800F09FF9054404E0302065
:1041A0005A46179990476D1C0099481E00900029A7
:1041B000F5DC08E0029802995A460078491C029101
:1041C000179990476D1CBAF10001AAF1010AF1DCC0
:1041D00065E10000092801003031323334353637CB
:1041E0003839616263646566000000003031323343
:1041F00034353637383941424344454600000000E3
:1042000000F058F90544761C307800287FF4ECADB6
:1042100019B02846BDE8F08F620700D4062709F1DF
:10422000070222F0070CFCE80223E14603F00048F5
:104230005FEA080C02D00FF2702C0DE05FEA045C1C
:1042400002D50FF2682C07E05FEAC47C02D00FF2BF
:10425000602C01E0AFF2700C4FF0FF3823F0004308
:10426000CDF850C065280CD006DC452809D046287A
:104270001DD047283DD13DE0662818D067287ED163
:1042800038E00021112F01DB112000E0781CCDE97E
:10429000000106A90EA8FFF7DDFCDDE90F010E9A6B
:1042A00003910021009207F1010A04914DE04FF0C3
:1042B00000400097CDE9011006A90EA8FFF7CAFC3F
:1042C000DDE90F0203920E9B11990022DDF80CA08C
:1042D0000093049211B9791C00EB010AB7EB0A00B4
:1042E00004D4C0F1FF3007F1010A0490AAEB0700E3
:1042F000019044E0012F00DA01270021112F01DD98
:10430000112000E03846CDE9000106A90EA8FFF70C
:10431000A1FCDDE90F010E9A0391002104910092A6
:10432000BA4621070CD40399514500DA8A46BAF1FE
:10433000010F05DD009AAAF10101515C302908D076
:10434000B84202DA10F1040F06DA0121CDE90110BA
:1043500015E0AAF10101E9E7002805DC0499014410
:104360000491AAEB000102E0411C514500DD8A46A0
:104370000499401A401C01904FF000400290200721
:1043800004D40198504501DBCDF8048000208DF85D
:104390004F0002980DF14F07B0F1004F25D02B20B0
:1043A0000E9002984FF0020800280CDA404202906A
:1043B0002D200E9007E00A210298FCF73BF93031DE
:1043C000029007F8011DB8F10001A8F10108F2DC24
:1043D00002980028EFD1791E0E980870307800F00E
:1043E000200040F0450007F8020D12A8C01B00F1A4
:1043F00007081498007800B1012000EB0A01019829
:1044000001EBE07105984144401A401E0590E0031D
:1044100006D45B462146179A059800F05DF80544DE
:104420001498007818B15A46179990476D1CE0030C
:1044300024D55B462146179A059800F04DF80544AF
:104440001CE00498002807DBDDE90301884203DD56
:104450000098405C179901E0179930205A46904720
:10446000049805F10105401C04900198401E01903C
:1044700004D12E205A46179990476D1CBAF10001BD
:10448000AAF1010ADDDC05E017F8010B5A4617997D
:1044900090476D1CB8F10001A8F10108F4DC5B46FF
:1044A0002146179A0598ABE62D0000002B0000006E
:1044B000200000002DE9F041044600251E46174665
:1044C000880404D405E039462020B0476D1C641EE2
:1044D000F9D52846BDE8F0812DE9F04104460025D4
:1044E0001E469046C80301D5302700E020278804E7
:1044F00004D505E041463846B0476D1C641EF9D529
:104500002846BDE8F0810A68531C0B6010707047A4
:1045100003496423072288710248FEF799BA000014
:104520006A0000202802002010B5044600F58050E3
:1045300000220271521EC262204602F09CF808B1AD
:10454000032010BDB4F8FE11A1F52A40553801D062
:10455000022010BD94F83600B4F8371040EA01216B
:104560000848B0EB012F08D094F85210B4F853204B
:1045700041EA0221B0EB012F01D1002010BD012042
:1045800010BD00000046415400E0401C02780AB112
:104590008A42FAD1D0B27047F0B50022174E1546C4
:1045A00000F5805002EB420356F823406CB10768D7
:1045B000BC420BD106EB830387685C68BC4205D123
:1045C0001B89C488A34204D000E00125521C022AA2
:1045D000E8D3022A01D079B904E05DB9022909D0F3
:1045E0001220F0BD02EB420006EB80004089B0F5DE
:1045F000807F01D00020F0BD1020F0BD942300206A
:1046000030B50021064B0C4601EB410253F8225015
:10461000854201D143F82240491C0229F4D330BD20
:104620009423002000F58050426A006800F5805015
:10463000438980784343B1FBF3F0121D02CA19B1DC
:10464000884203D3401AF8E70020704711680844F5
:10465000704700F58050891E4269921E8A4201D837
:1046600000207047826A807801FB002070472DE9A6
:10467000F04180460F0000F5805507D0404601F01C
:104680009DFA022809D20120BDE8F081EE6816B13A
:104690006869B04207D8012605E0411CF4D0696979
:1046A0008142F1D83E4634466869641CA04202D873
:1046B0000224022E0AD32146404601F07FFA38B187
:1046C000411CE1D00128DFD0B442EDD10020DBE76E
:1046D0006FF070422146404601F0E9FF30B957B112
:1046E00022463946404601F0E2FF20B101280DD0B4
:1046F00001242046C8E7EC602869411CF9D0401E1F
:104700002861687940F001006871F2E74FF0FF34EA
:10471000EFE700002DE9F84F88460D6800E06D1CBA
:1047200029782F29FBD05C29F9D000F58050009022
:104730000024D0F820902646A85D761C202815D3AA
:104740002F2813D05C2811D0FF2C2FD2012101F08B
:104750005FF807002AD0802F04D201465FA0FFF740
:1047600013FF18BB29F81470641CE5E7AA19C8F8F0
:104770000020202801D2042616E0002614E009EBD0
:10478000440030F8020C20280DD02E280BD06CB13C
:10479000002129F8141000980B222021806901F0D3
:1047A00063FF002706E0641E002CE8D10620BDE868
:1047B000F88F7F1C39F817002028FAD02E28F8D05F
:1047C0001FB146F0030600E0641E2CB109EB440063
:1047D00030F8020C2E28F7D14FF0000AD0464FF0E7
:1047E000080B39F817507F1C05B3202D03D02E2D50
:1047F00004D1A74202D046F00306F2E7DA4501D21F
:10480000A74219D1BBF10B0F0ED0A74201D046F041
:1048100003060BD84FEA886027464FF0080A4FF08E
:104820000B0B4FEA1068DCE746F00306009880693E
:104830000178E5292ED02FE0802D0CD300212846C9
:1048400000F0E6FF050003D02748284410F8805CFC
:1048500046F0020625B1294624A0FFF795FE18B1BF
:104860005F2546F003060EE0A5F14100192802D8A5
:1048700048F0020807E0A5F16100192803D8203D9F
:1048800048F00108ADB20098816901F80A500AF1B8
:10489000010AA6E705210170BBF1080F03D14FEA19
:1048A00088604FEA1068C8F38100032803D06FEADC
:1048B0000801890701D146F00206B10709D408F0C2
:1048C0000301012901D146F01006012801D146F06B
:1048D000080600988069C672002068E7222A3A3CE0
:1048E0003E3F7C7F000000006A6B00082B2C3B3DA4
:1048F0005B5D0000401E022815D20C4B00EB40020D
:1049000003EB82014889B0F5807F05D008B1401ED5
:1049100080B2488110B104E00020FAE7002043F89B
:1049200022000020704702207047000094230020DE
:104930002DE9F14F0021009800F0FAF900287DD10F
:10494000009CFF2504F580544FF6FF70AB46A08411
:104950002169206801F08FFE07007CD166693078FC
:1049600048B1F17AE52801F03F0169D00A0704D582
:104970000F2965D105E004276DE00F2901D08DB323
:104980004DE0216A79B3420606D596F80DB020F0C5
:104990004000E2880546A284A84236D1727B5A457F
:1049A00033D130788A4620F04000401EB14600EBFB
:1049B000800101EBC0064FF000080127274810F8DE
:1049C000081001EB0900008877B100F03DFF0746B1
:1049D000FF2E1AD23AF81600761C00F035FFB842C6
:1049E00013D105E016E02FE0A0F57F41FF390CD18F
:1049F00008F10108B8F10D0FE0D399F80000400666
:104A000006D52FB13AF8160010B1FF25EDB21BE024
:104A10006D1EFBE7304601F0ABFF58451BD0A06987
:104A2000C17AC9070CD10B210022491E07D316F801
:104A3000012B10F8013BD21AF7D001E00CE052B183
:104A40004FF6FF70FF25A0840021009800F008F8C1
:104A500007003FF47DAF3846BDE8F88FEA6B0008E9
:104A60002DE9F04100F580540E46E7887F1C38049C
:104A7000000C39D022699AB3206800F580514B8927
:104A80005B09B7FBF3F503FB1573002B67D1521CD1
:104A90002261E2682AB34B8989785B09B7FBF3F39B
:104AA000491E0B425BD1114601F088F805460128EA
:104AB0001FD9681C38D0206841F214010958A94256
:104AC00047D86EB1E168FFF7D2FD05000FD0012D88
:104AD0000FD0681C28D0206801F0ABFF20BB0AE093
:104AE00002E00889B8423AD80420BDE8F0810720E6
:104AF000FBE70220F9E741F20A0120680A5A002187
:104B000001F0B2FD29462068FFF7A3FD21680026C9
:104B100001F580514FF00108C8620EE080F8048072
:104B2000206801F086FF08B10120DEE7206800F56B
:104B30008050C16A491C761CC162206800F5805013
:104B40008178B142EAD8216801F58051C96A891B90
:104B5000C162E56029462068FFF77BFD2061E780A0
:104B600041F20A012068095A4909B7FBF1F201FB39
:104B7000127100EB411060610020B6E72DE9F14FA2
:104B800084B00C22049C684604F58054A769266A08
:104B9000394601F061FD9DF80B00C00718D00020D8
:104BA000F872012520622B4632466946384600F0ED
:104BB000C7FF0498FFF7BCFE10B96D1C642DF2D33B
:104BC000642D0BD004280AD19DF80B00F8722662E0
:104BD0009DF80B0080070FD5002004E0072005B0EA
:104BE000BDE8F08F401C36F810100029FAD10D21D5
:104BF0001930B0FBF1F500E00125049E002130469C
:104C000000F096F8A8B94FF0000806F5805739690A
:104C1000386801F030FD60B979690978E5290BD071
:104C200051B14FF0000801213046FFF719FF00286D
:104C3000EDD0042805D005E008F10108A84501D011
:104C4000F1E7072006006FD16D1E52D0E088411BAE
:104C5000049800F06DF8060066D1A06901F088FEA6
:104C60004FF6FF7A03902169206801F004FD0600E9
:104C70005AD16169D4F82090039848730F20C87204
:104C8000002008738876EEB2C876701E00EB8002B2
:104C900002EBC0030022DFF894B001F1010801E04B
:104CA000504502D039F813005B1C1BF802C001F814
:104CB0000C001BF802704FEA102C07F808C000B96E
:104CC0005046521C0D2AEBD3504502D039F8130040
:104CD00008B946F040060E702168012001F58051A8
:104CE000087100210498FFF7BBFE06001CD16D1E61
:104CF000B9D12169206801F0BEFC060014D1202240
:104D00000021606901F0B0FCD4E905010B2201F03B
:104D1000A3FCA0696169C07A00F0180008732168DB
:104D2000012001F580510871304658E7EA6B000810
:104D300070B500F580540D46E180A368012B42D088
:104D4000206800F58050416999423CD923B9017827
:104D5000032906D1436A23B1418980784E0946432D
:104D600012E00189A9422ED9406A13E000F026FF23
:104D70000346401C25D0022B25D3206800F5805027
:104D8000406998421FD9AD1B2068B5421946EDD243
:104D9000FFF75FFCE360B0B121680A4601F580517E
:104DA0004B895B09B5FBF3F318442061488940093E
:104DB000B5FBF0F100FB115002EB401060610020E8
:104DC00070BD012070BD022070BD0000084A10B502
:104DD000135C002153B901211154111802EB80001A
:104DE000097A40680268084690470146084610BDA7
:104DF000AC25002030B4054B1C1803EB8000247A4E
:104E000040680369204630BC18470000AC250020EC
:104E100030B4054C251804EB80002D7A4068846876
:104E20002846A44630BC6047AC25002004490A1837
:104E300001EB8000127A4068416810460847000084
:104E4000AC25002030B4054C251804EB80002D7AE9
:104E50004068C4682846A44630BC6047AC250020A2
:104E600010B5044600F0AAFB00280DD1204601F041
:104E700067FE002808D104F58054A06AFFF73AFDC8
:104E8000002801D10021216010BD2DE9F74F144603
:104E90008B4600226946204600F0E8FCD4F800A0CA
:104EA0005FEA00084FD10AF58055D5E90407B91E1D
:104EB000884202D8CBF8000045E095F80090002425
:104EC000B9F1010F01D02E6A16E002263146504694
:104ED00000F074FE411C03D0012803D028B105E086
:104EE000012000E00220804626E0641C6869761CF0
:104EF0008642EBD320E049B93146761C504601F09A
:104F0000BAFB5FEA000817D169895046B9F1020F70
:104F100007D00278D0F8013042EA0322120106D00D
:104F200006E0028802B9641C801C891E02E0641C31
:104F3000001D091F7F1EDED12C61687940F0010041
:104F40006871CBF800404046BDE8FE8F2DE9F84F70
:104F50000D46804601F0F4FD5FEA000A79D108F5BC
:104F60008054E079002874D1666A4FF00109002E60
:104F700071D0681C31D0E068A84200D20546A56017
:104F8000002D51D04046691EFFF74CFB0146606181
:104F90002068FFF75EFB00287ED021686D1E01F5BA
:104FA00080514A89B5FBF2F38D786D1E2B401D1898
:104FB000A068B0FBF2F302FB13000028E1D0A26965
:104FC000AA42DED0A079400636D548780123414672
:104FD000FFF738FF00286FD12AE056F804BB21699B
:104FE0000227D9B10025BF1C009188466D1C20689E
:104FF00000F0E4FD014601284ED9481C5CD008F1C0
:1050000001008142F1D05F4502D820C6009801C658
:10501000206800F5805040698842E3D8606A5F45A7
:10502000076002D800203060B2E04FF0110AAFE014
:10503000A07920F04000A0712068012300F5805085
:105040002A4640784146FFF7E3FE002834D1A561A7
:105050009EE07FE0FFE7E068A84203D2A1798907DC
:1050600000D405460027A068A76025B321680A463A
:1050700001F580518E7849894E4370B1691E401EFA
:10508000B1FBF6F1B0FBF6F3994206D3711E8843EB
:10509000A0602D1A61690DE05AE0216949B900212B
:1050A0001046FFF7E4FA0146012851D0481C61D0B0
:1050B00021616161E9B934E05CE0A0798007206892
:1050C00005D5FFF7D4FA010004D1354613E000F00E
:1050D00075FD0146481C4DD0012939D9206800F5DD
:1050E00080504069884233D96161A068AD1B30446B
:1050F000A060B542E1D8A06841F20A022844A0604D
:105100002068125AB5FBF2F302FB13524AB1FFF7C3
:10511000A0FAE8B1216801F580514989B5FBF1F1A8
:105120000F182068A16800F580504289B1FBF2F3A6
:1051300002FB131119B3A269BA4220D0A179490622
:105140000ED5407801234146FFF77CFE90B903E07D
:105150000220E071BDE8F88FA07920F04000A07136
:105160002068012300F580503A4640784146FFF719
:105170004FFE18B184F807900120EBE7A761D4E94E
:105180000201884204D9E060A07940F02000A071BB
:105190005046DFE72DE9F74181B090460298009034
:1051A000684600F080FD040003D50B2004B0BDE884
:1051B000F0810F4E002756F824502DB12846FFF7F6
:1051C0001FFA05F580552F700198002802D04FF482
:1051D00080510F5446F8240002D0B8F1010F01D0DD
:1051E0000020E3E7002202A901A800F03FFBDDE771
:1051F000D80000202DE9F74FADF5825D98B100F59C
:1052000080574FF0000802F01F0641F2440126F0DB
:10521000010269440DF58050C7F8008000F026FBBC
:10522000040006D0D1E0092013B00DF5805DBDE883
:10523000F08F41F228000DF580516844886165487F
:105240000862EB46496C584600F044FC04000DF53A
:10525000805045690BD11DB1700803D0012102E0D7
:10526000062404E000215846FFF796F9044616F09C
:105270001C0F6CD0ECB1042C14D156490020183905
:1052800002E0401C022805D200EB400251F8222027
:10529000002AF6D1022804D05846FFF76FFC0446D6
:1052A00000E012240DF5805046F00806456944B12F
:1052B0008BE0E87A10F0110F53D1700701D5082464
:1052C00083E0300753D500F0ECFCA873010AE973C2
:1052D000010C2974000E687485F80B8085F81C8019
:1052E00085F81D8085F81E800DF5805185F81F809A
:1052F0000868294600F040FD81460021284601F05B
:105300002FFB0DF5805201211068B9F1000F00F557
:105310008050017129D01068494600F58050D0F8BE
:105320002CA0106801F075FA04004ED10DF58051E3
:10533000A9F10100096801F58051C8600DF580519F
:105340000868514601F097F904000CD03DE0E4BB39
:10535000E87AC10601D5042437E0B10703D5C007B8
:1053600001D0072431E0300701D546F020060DF5C5
:105370008050006800F58050C06AC7E907057008D2
:1053800001D0012100E00021584600F0ABFCB862DA
:10539000E8B1BE710DF5805087F807804646006879
:1053A000294600F0E9FC3861287FD5F81D1040EA55
:1053B0000120C7E90260BE610DF580507E62006881
:1053C000386000F58050C088B88020462CE7022461
:1053D000FBE70000AC2300200FB42DE9F0479AB0A2
:1053E00024AE0290002003900DF1540904902398FC
:1053F00010F8011B2390002973D0252903D002A89F
:1054000001F0E4F9F3E7002510F8011B2F46239083
:10541000302902D02D2902D00FE0012500E002251D
:1054200010F8011B239008E007EB870001EB400711
:105430002398303F10F8011B2390A1F13000092878
:10544000F2D96C2901D04C2905D1239845F00405E7
:1054500010F8011B2390002943D0A1F161000A46F6
:10546000192801D8203AD2B24F2A40D006DC422A6D
:105470003BD0432A36D0442AC1D13AE0532A08D03F
:10548000552A36D0582ABAD1102301CE442A32D018
:1054900036E056F8048B002400E0641C18F8040081
:1054A0000028FAD1A80704D50DE0202102A801F0B8
:1054B0008DF92046641CB842F7D304E008F10108D6
:1054C00002A801F083F998F800100029F6D103E052
:1054D000202102A801F07AF92046641CB84286D245
:1054E000F6E754E016F8041B89E70223CDE708230A
:1054F000CBE70A23C9E7002802DA404245F0080555
:105500000024CC46B0FBF3F203FB1202B0FBF3F035
:10551000D2B2092A05D9782915D04FF0070842449C
:10552000D2B230320CF80420641C08B1102CE9D33C
:10553000280703D52D2009F80400641CA046E807BD
:1055400004D0302003E04FF02708E8E7202082460F
:1055500003E0514602A801F039F9A80704D44146F6
:1055600008F10108B942F4D34D46641E02A8295D32
:1055700001F02CF9002CF8D103E0514602A801F00B
:1055800025F9414608F10108B942A8D2F5E7039888
:10559000002810DB024601AB05A9029800F05FF875
:1055A00048B901990398884205D104981AB0BDE81A
:1055B000F0075DF814FB4FF0FF30F7E770B50546D4
:1055C00001F0BEFA002811D105F58054A1798A06B0
:1055D0000CD548060FD52068012300F580502946D8
:1055E0004078A269FFF72EFC08B1012070BDA079B8
:1055F00020F04000A071E169206801F03CF800282B
:10560000F4D1256AE87A40F02000E872207B287700
:10561000A089000A6877E068000CA877E068000EAF
:10562000E8772846216901F09BF900F03AFBA8755C
:10563000010AE975010C2976000E68760020A8742D
:10564000E874A079012120F02000A071206800F505
:10565000805001712068BDE8704001F096B92DE9D5
:10566000F05F894600219A4615468346196001F08D
:1056700067FA002808D10BF58054E079002803D19F
:10568000A079800702D40720BDE8F09FA0684119E7
:10569000814274D3AEE02268A16802F58053588934
:1056A000B1FBF0F600FB1616002E7ED1B1FBF0F038
:1056B0009B785B1E184010F0FF0618D129B1606A74
:1056C00038B15846FEF7AEFF07E0206938B900212F
:1056D00000E061691046FEF7CAFF00284FD001289C
:1056E00031D0411C5CD06061216901B92061A07991
:1056F00040060DD52068012300F5805059464078BA
:10570000A269FFF79FFBC8BBA07920F04000A07101
:1057100061692068FEF79DFFA8B100EB06082068CC
:1057200000F580504189B5FBF1F74FB38178F2194C
:105730008A4200D98F1B40783B4642464946FFF7D4
:1057400081FBD8B902E00220E0719DE7A169A1EBDD
:105750000800B8420CD2216801F580514A8900FB4B
:105760000291584600F078FFA07920F04000A07127
:10577000206800F5805046897E4331E010E03CE02F
:1057800000E012E0A26942450DD0D4E90212914234
:1057900009D24078012342465946FFF739FB10B140
:1057A0000120E07170E7C4F818802068A16800F556
:1057B00080504089B1FBF0F200FB1212861AAE4213
:1057C00000D92E46B1FBF0F200FB121101EB0B00E9
:1057D0003246494600F040FFA07940F04000A071F9
:1057E000A068B1443044A060DAF800008119AD1B14
:1057F000CAF80010002D7FF44EAFD4E902018842B0
:1058000000D9E060A07940F02000A07100203BE7C3
:10581000802804D30B4A51B1FF2801D900207047DA
:1058200002EB4000A0F58050B0F8000F704732F84E
:105830001130834203D0491C89B28029F7D38031CB
:10584000C8B27047246C00080021064B00E0491CD8
:1058500033F81120002A04D08242F8D1024830F8EF
:1058600011007047246D0008046F00082DE9FF5FE8
:105870004FF0000B0546C0F800B01746084600F090
:1058800012FA060003D50B2004B0BDE8F09F8E4845
:1058900050F826409CB12C6004F58055287820B142
:1058A0006878FFF7C3FAC1070BD085F800B0F0B2F3
:1058B0006870FFF78BFAC10708D00320E4E70C20DB
:1058C000E2E70FB1400704D40020DDE71FB1400735
:1058D00001D50A20D8E741F20A016218687802214E
:1058E000FFF788FAA8BB6889B0F5007F32D3B0F51E
:1058F000805F2FD8002631462046FEF715FE01288E
:1059000023D100206A4604EB001191F8C23101F561
:10591000DF712BB10B7AD1F8091043EA012100E0C5
:10592000002142F82010401C0428ECD300279046A8
:1059300058F8276026B131462046FEF7F5FD00E015
:10594000022048B17F1C042FF2D3032802D0E8BB09
:1059500002E0FFE7012097E7B4F80B006A89904264
:1059600061D1E08A28B994F82400D4F8251040EADF
:105970000120A861217C8246E970012901D0022919
:1059800051D1677B01FB00F9AF70FFB1781E074270
:1059900049D1B4F811104FEA521CB1FBFCF00CFBDA
:1059A0001010298190B9B4F8130028B994F8200098
:1059B000D4F8213040EA0320E3893BB1B1FBFCF885
:1059C00003EB090CC44460452DD300E02BE0A0EBB1
:1059D0000C00B0FBF7F030B3012740F6F6784045F5
:1059E00000D302274FF6F678404500D30327801CEA
:1059F000B444C5F828C033446861C5E90763032F80
:105A000013D081B103EB09016962022F18D000F0B5
:105A1000010100EB400001EB5000401E1044B0FBC0
:105A2000F2F151450ED90D202EE70029FBD194F853
:105A30002C10D4F82D30800041EA03216962ECE794
:105A40004000EAE74FF0FF302861E860802068718D
:105A5000032F2ED1208E01282BD12046711C00F05F
:105A60000AFE30BB85F805B0B4F8FE01A0F52A4166
:105A700055391ED12078D4F8011040EA012013498D
:105A8000884216D194F8E401D4F8E51140EA0120E7
:105A90000F4988420DD194F8E801D4F8E91140EAA1
:105AA0000120286194F8EC01D4F8ED1140EA0120BE
:105AB000E86005492F70091F0888401C0880E880AD
:105AC0002046FEF79DFDFFE6D800002052526141BE
:105AD0007272416173B50546019908782F2801D08B
